:100000000C9434000C943E000C943E000C943E0082
:100010000C943E000C943E000C943E000C943E0068
:100020000C943E000C943E000C943E000C943E0058
:100030000C943E000C943E000C943E000C943E0048
:100040000C943E000C943E000C943E000C943E0038
:100050000C943E000C943E000C943E000C943E0028
:100060000C943E000C943E0011241FBECFEFD8E04C
:10007000DEBFCDBF0E944E000C9452000C940000D5
:1000800095B181E0892785B92FEF89E698E1215064
:1000900080409040E1F700C000000895209A0E943F
:0800A0004000FDCFF894FFCFF2
:00000001FF
